{
  "_format": "hh-sol-artifact-1",
  "contractName": "Sample",
  "sourceName": "contracts/Sample.sol",
  "abi": [
    {
      "inputs": [
        {
          "internalType": "string",
          "name": "_name",
          "type": "string"
        },
        {
          "internalType": "string",
          "name": "_symbol",
          "type": "string"
        },
        {
          "internalType": "uint256",
          "name": "_total_supply",
          "type": "uint256"
        }
      ],
      "stateMutability": "nonpayable",
      "type": "constructor"
    },
    {
      "anonymous": false,
      "inputs": [
        {
          "indexed": true,
          "internalType": "address",
          "name": "owner",
          "type": "address"
        },
        {
          "indexed": true,
          "internalType": "address",
          "name": "approved",
          "type": "address"
        },
        {
          "indexed": true,
          "internalType": "uint256",
          "name": "tokenId",
          "type": "uint256"
        }
      ],
      "name": "Approval",
      "type": "event"
    },
    {
      "anonymous": false,
      "inputs": [
        {
          "indexed": true,
          "internalType": "address",
          "name": "owner",
          "type": "address"
        },
        {
          "indexed": true,
          "internalType": "address",
          "name": "operator",
          "type": "address"
        },
        {
          "indexed": false,
          "internalType": "bool",
          "name": "approved",
          "type": "bool"
        }
      ],
      "name": "ApprovalForAll",
      "type": "event"
    },
    {
      "anonymous": false,
      "inputs": [
        {
          "indexed": true,
          "internalType": "address",
          "name": "previousOwner",
          "type": "address"
        },
        {
          "indexed": true,
          "internalType": "address",
          "name": "newOwner",
          "type": "address"
        }
      ],
      "name": "OwnershipTransferred",
      "type": "event"
    },
    {
      "anonymous": false,
      "inputs": [
        {
          "indexed": true,
          "internalType": "address",
          "name": "from",
          "type": "address"
        },
        {
          "indexed": true,
          "internalType": "address",
          "name": "to",
          "type": "address"
        },
        {
          "indexed": true,
          "internalType": "uint256",
          "name": "tokenId",
          "type": "uint256"
        }
      ],
      "name": "Transfer",
      "type": "event"
    },
    {
      "stateMutability": "payable",
      "type": "fallback"
    },
    {
      "inputs": [
        {
          "internalType": "address",
          "name": "to",
          "type": "address"
        },
        {
          "internalType": "uint256",
          "name": "tokenId",
          "type": "uint256"
        }
      ],
      "name": "approve",
      "outputs": [],
      "stateMutability": "nonpayable",
      "type": "function"
    },
    {
      "inputs": [
        {
          "internalType": "address",
          "name": "owner",
          "type": "address"
        }
      ],
      "name": "balanceOf",
      "outputs": [
        {
          "internalType": "uint256",
          "name": "",
          "type": "uint256"
        }
      ],
      "stateMutability": "view",
      "type": "function"
    },
    {
      "inputs": [
        {
          "internalType": "uint256",
          "name": "tokenId",
          "type": "uint256"
        }
      ],
      "name": "getApproved",
      "outputs": [
        {
          "internalType": "address",
          "name": "",
          "type": "address"
        }
      ],
      "stateMutability": "view",
      "type": "function"
    },
    {
      "inputs": [],
      "name": "getBaseURI",
      "outputs": [
        {
          "internalType": "string",
          "name": "",
          "type": "string"
        }
      ],
      "stateMutability": "view",
      "type": "function"
    },
    {
      "inputs": [
        {
          "internalType": "address",
          "name": "owner",
          "type": "address"
        },
        {
          "internalType": "address",
          "name": "operator",
          "type": "address"
        }
      ],
      "name": "isApprovedForAll",
      "outputs": [
        {
          "internalType": "bool",
          "name": "",
          "type": "bool"
        }
      ],
      "stateMutability": "view",
      "type": "function"
    },
    {
      "inputs": [
        {
          "internalType": "uint256",
          "name": "num",
          "type": "uint256"
        }
      ],
      "name": "mint",
      "outputs": [],
      "stateMutability": "payable",
      "type": "function"
    },
    {
      "inputs": [],
      "name": "name",
      "outputs": [
        {
          "internalType": "string",
          "name": "",
          "type": "string"
        }
      ],
      "stateMutability": "view",
      "type": "function"
    },
    {
      "inputs": [],
      "name": "owner",
      "outputs": [
        {
          "internalType": "address",
          "name": "",
          "type": "address"
        }
      ],
      "stateMutability": "view",
      "type": "function"
    },
    {
      "inputs": [
        {
          "internalType": "uint256",
          "name": "tokenId",
          "type": "uint256"
        }
      ],
      "name": "ownerOf",
      "outputs": [
        {
          "internalType": "address",
          "name": "",
          "type": "address"
        }
      ],
      "stateMutability": "view",
      "type": "function"
    },
    {
      "inputs": [],
      "name": "paused_sale",
      "outputs": [
        {
          "internalType": "bool",
          "name": "",
          "type": "bool"
        }
      ],
      "stateMutability": "view",
      "type": "function"
    },
    {
      "inputs": [],
      "name": "renounceOwnership",
      "outputs": [],
      "stateMutability": "nonpayable",
      "type": "function"
    },
    {
      "inputs": [
        {
          "internalType": "address",
          "name": "from",
          "type": "address"
        },
        {
          "internalType": "address",
          "name": "to",
          "type": "address"
        },
        {
          "internalType": "uint256",
          "name": "tokenId",
          "type": "uint256"
        }
      ],
      "name": "safeTransferFrom",
      "outputs": [],
      "stateMutability": "nonpayable",
      "type": "function"
    },
    {
      "inputs": [
        {
          "internalType": "address",
          "name": "from",
          "type": "address"
        },
        {
          "internalType": "address",
          "name": "to",
          "type": "address"
        },
        {
          "internalType": "uint256",
          "name": "tokenId",
          "type": "uint256"
        },
        {
          "internalType": "bytes",
          "name": "_data",
          "type": "bytes"
        }
      ],
      "name": "safeTransferFrom",
      "outputs": [],
      "stateMutability": "nonpayable",
      "type": "function"
    },
    {
      "inputs": [
        {
          "internalType": "address",
          "name": "operator",
          "type": "address"
        },
        {
          "internalType": "bool",
          "name": "approved",
          "type": "bool"
        }
      ],
      "name": "setApprovalForAll",
      "outputs": [],
      "stateMutability": "nonpayable",
      "type": "function"
    },
    {
      "inputs": [
        {
          "internalType": "string",
          "name": "baseURI",
          "type": "string"
        }
      ],
      "name": "setBaseURI",
      "outputs": [],
      "stateMutability": "nonpayable",
      "type": "function"
    },
    {
      "inputs": [
        {
          "internalType": "bytes4",
          "name": "interfaceId",
          "type": "bytes4"
        }
      ],
      "name": "supportsInterface",
      "outputs": [
        {
          "internalType": "bool",
          "name": "",
          "type": "bool"
        }
      ],
      "stateMutability": "view",
      "type": "function"
    },
    {
      "inputs": [],
      "name": "symbol",
      "outputs": [
        {
          "internalType": "string",
          "name": "",
          "type": "string"
        }
      ],
      "stateMutability": "view",
      "type": "function"
    },
    {
      "inputs": [],
      "name": "toggleSale",
      "outputs": [],
      "stateMutability": "nonpayable",
      "type": "function"
    },
    {
      "inputs": [
        {
          "internalType": "uint256",
          "name": "tokenId",
          "type": "uint256"
        }
      ],
      "name": "tokenURI",
      "outputs": [
        {
          "internalType": "string",
          "name": "",
          "type": "string"
        }
      ],
      "stateMutability": "view",
      "type": "function"
    },
    {
      "inputs": [],
      "name": "tokensMinted",
      "outputs": [
        {
          "internalType": "uint256",
          "name": "",
          "type": "uint256"
        }
      ],
      "stateMutability": "view",
      "type": "function"
    },
    {
      "inputs": [],
      "name": "total_supply",
      "outputs": [
        {
          "internalType": "uint256",
          "name": "",
          "type": "uint256"
        }
      ],
      "stateMutability": "view",
      "type": "function"
    },
    {
      "inputs": [
        {
          "internalType": "address",
          "name": "from",
          "type": "address"
        },
        {
          "internalType": "address",
          "name": "to",
          "type": "address"
        },
        {
          "internalType": "uint256",
          "name": "tokenId",
          "type": "uint256"
        }
      ],
      "name": "transferFrom",
      "outputs": [],
      "stateMutability": "nonpayable",
      "type": "function"
    },
    {
      "inputs": [
        {
          "internalType": "address",
          "name": "newOwner",
          "type": "address"
        }
      ],
      "name": "transferOwnership",
      "outputs": [],
      "stateMutability": "nonpayable",
      "type": "function"
    },
    {
      "inputs": [],
      "name": "unit_cost",
      "outputs": [
        {
          "internalType": "uint256",
          "name": "",
          "type": "uint256"
        }
      ],
      "stateMutability": "view",
      "type": "function"
    },
    {
      "inputs": [
        {
          "internalType": "address payable",
          "name": "receiver",
          "type": "address"
        }
      ],
      "name": "withdraw",
      "outputs": [],
      "stateMutability": "nonpayable",
      "type": "function"
    },
    {
      "stateMutability": "payable",
      "type": "receive"
    }
  ],
  "bytecode": "0x608060405260405180606001604052806039815260200162003afb603991396008908051906020019062000035929190620001b8565b506000600a60006101000a81548160ff0219169083151502179055503480156200005e57600080fd5b5060405162003b3438038062003b34833981810160405281019062000084919062000440565b828281600090805190602001906200009e929190620001b8565b508060019080519060200190620000b7929190620001b8565b505050620000da620000ce620000ea60201b60201c565b620000f260201b60201c565b806009819055505050506200053f565b600033905090565b6000600660009054906101000a900473ffffffffffffffffffffffffffffffffffffffff16905081600660006101000a81548173ffffffffffffffffffffffffffffffffffffffff021916908373ffffffffffffffffffffffffffffffffffffffff1602179055508173ffffffffffffffffffffffffffffffffffffffff168173ffffffffffffffffffffffffffffffffffffffff167f8be0079c531659141344cd1fd0a4f28419497f9722a3daafe3b4186f6b6457e060405160405180910390a35050565b828054620001c69062000509565b90600052602060002090601f016020900481019282620001ea576000855562000236565b82601f106200020557805160ff191683800117855562000236565b8280016001018555821562000236579182015b828111156200023557825182559160200191906001019062000218565b5b50905062000245919062000249565b5090565b5b80821115620002645760008160009055506001016200024a565b5090565b6000604051905090565b600080fd5b600080fd5b600080fd5b600080fd5b6000601f19601f8301169050919050565b7f4e487b7100000000000000000000000000000000000000000000000000000000600052604160045260246000fd5b620002d18262000286565b810181811067ffffffffffffffff82111715620002f357620002f262000297565b5b80604052505050565b60006200030862000268565b9050620003168282620002c6565b919050565b600067ffffffffffffffff82111562000339576200033862000297565b5b620003448262000286565b9050602081019050919050565b60005b838110156200037157808201518184015260208101905062000354565b8381111562000381576000848401525b50505050565b60006200039e62000398846200031b565b620002fc565b905082815260208101848484011115620003bd57620003bc62000281565b5b620003ca84828562000351565b509392505050565b600082601f830112620003ea57620003e96200027c565b5b8151620003fc84826020860162000387565b91505092915050565b6000819050919050565b6200041a8162000405565b81146200042657600080fd5b50565b6000815190506200043a816200040f565b92915050565b6000806000606084860312156200045c576200045b62000272565b5b600084015167ffffffffffffffff8111156200047d576200047c62000277565b5b6200048b86828701620003d2565b935050602084015167ffffffffffffffff811115620004af57620004ae62000277565b5b620004bd86828701620003d2565b9250506040620004d08682870162000429565b9150509250925092565b7f4e487b7100000000000000000000000000000000000000000000000000000000600052602260045260246000fd5b600060028204905060018216806200052257607f821691505b60208210811415620005395762000538620004da565b5b50919050565b6135ac806200054f6000396000f3fe60806040526004361061016a5760003560e01c8063714c5398116100d1578063a0712d681161008a578063c87b56dd11610064578063c87b56dd146104fd578063e3f8b4761461053a578063e985e9c514610565578063f2fde38b146105a257610171565b8063a0712d681461048f578063a22cb465146104ab578063b88d4fde146104d457610171565b8063714c5398146103b5578063715018a6146103e05780637d8966e4146103f75780638da5cb5b1461040e57806395d89b41146104395780639d186abb1461046457610171565b806342842e0e1161012357806342842e0e1461029557806351cff8d9146102be57806355f804b3146102e75780636352211e146103105780636de9f32b1461034d57806370a082311461037857610171565b806301ffc9a71461017357806306fdde03146101b0578063081812fc146101db578063095ea7b31461021857806323b872dd146102415780633940e9ee1461026a57610171565b3661017157005b005b34801561017f57600080fd5b5061019a6004803603810190610195919061211e565b6105cb565b6040516101a79190612166565b60405180910390f35b3480156101bc57600080fd5b506101c56106ad565b6040516101d2919061221a565b60405180910390f35b3480156101e757600080fd5b5061020260048036038101906101fd9190612272565b61073f565b60405161020f91906122e0565b60405180910390f35b34801561022457600080fd5b5061023f600480360381019061023a9190612327565b6107c4565b005b34801561024d57600080fd5b5061026860048036038101906102639190612367565b6108dc565b005b34801561027657600080fd5b5061027f61093c565b60405161028c91906123c9565b60405180910390f35b3480156102a157600080fd5b506102bc60048036038101906102b79190612367565b610942565b005b3480156102ca57600080fd5b506102e560048036038101906102e09190612422565b610962565b005b3480156102f357600080fd5b5061030e60048036038101906103099190612584565b610a98565b005b34801561031c57600080fd5b5061033760048036038101906103329190612272565b610b2e565b60405161034491906122e0565b60405180910390f35b34801561035957600080fd5b50610362610be0565b60405161036f91906123c9565b60405180910390f35b34801561038457600080fd5b5061039f600480360381019061039a91906125cd565b610bf1565b6040516103ac91906123c9565b60405180910390f35b3480156103c157600080fd5b506103ca610ca9565b6040516103d7919061221a565b60405180910390f35b3480156103ec57600080fd5b506103f5610d3b565b005b34801561040357600080fd5b5061040c610dc3565b005b34801561041a57600080fd5b50610423610e6b565b60405161043091906122e0565b60405180910390f35b34801561044557600080fd5b5061044e610e95565b60405161045b919061221a565b60405180910390f35b34801561047057600080fd5b50610479610f27565b60405161048691906123c9565b60405180910390f35b6104a960048036038101906104a49190612272565b610f32565b005b3480156104b757600080fd5b506104d260048036038101906104cd9190612626565b611076565b005b3480156104e057600080fd5b506104fb60048036038101906104f69190612707565b61108c565b005b34801561050957600080fd5b50610524600480360381019061051f9190612272565b6110ee565b604051610531919061221a565b60405180910390f35b34801561054657600080fd5b5061054f611195565b60405161055c9190612166565b60405180910390f35b34801561057157600080fd5b5061058c6004803603810190610587919061278a565b6111a8565b6040516105999190612166565b60405180910390f35b3480156105ae57600080fd5b506105c960048036038101906105c491906125cd565b61123c565b005b60007f80ac58cd000000000000000000000000000000000000000000000000000000007bffffffffffffffffffffffffffffffffffffffffffffffffffffffff1916827bffffffffffffffffffffffffffffffffffffffffffffffffffffffff1916148061069657507f5b5e139f000000000000000000000000000000000000000000000000000000007bffffffffffffffffffffffffffffffffffffffffffffffffffffffff1916827bffffffffffffffffffffffffffffffffffffffffffffffffffffffff1916145b806106a657506106a582611334565b5b9050919050565b6060600080546106bc906127f9565b80601f01602080910402602001604051908101604052809291908181526020018280546106e8906127f9565b80156107355780601f1061070a57610100808354040283529160200191610735565b820191906000526020600020905b81548152906001019060200180831161071857829003601f168201915b5050505050905090565b600061074a8261139e565b610789576040517f08c379a00000000000000000000000000000000000000000000000000000000081526004016107809061289d565b60405180910390fd5b6004600083815260200190815260200160002060009054906101000a900473ffffffffffffffffffffffffffffffffffffffff169050919050565b60006107cf82610b2e565b90508073ffffffffffffffffffffffffffffffffffffffff168373ffffffffffffffffffffffffffffffffffffffff161415610840576040517f08c379a00000000000000000000000000000000000000000000000000000000081526004016108379061292f565b60405180910390fd5b8073ffffffffffffffffffffffffffffffffffffffff1661085f61140a565b73ffffffffffffffffffffffffffffffffffffffff16148061088e575061088d8161088861140a565b6111a8565b5b6108cd576040517f08c379a00000000000000000000000000000000000000000000000000000000081526004016108c4906129c1565b60405180910390fd5b6108d78383611412565b505050565b6108ed6108e761140a565b826114cb565b61092c576040517f08c379a000000000000000000000000000000000000000000000000000000000815260040161092390612a53565b60405180910390fd5b6109378383836115a9565b505050565b60095481565b61095d8383836040518060200160405280600081525061108c565b505050565b61096a61140a565b73ffffffffffffffffffffffffffffffffffffffff16610988610e6b565b73ffffffffffffffffffffffffffffffffffffffff16146109de576040517f08c379a00000000000000000000000000000000000000000000000000000000081526004016109d590612abf565b60405180910390fd5b600073ffffffffffffffffffffffffffffffffffffffff168173ffffffffffffffffffffffffffffffffffffffff161415610a4e576040517f08c379a0000000000000000000000000000000000000000000000000000000008152600401610a4590612b2b565b60405180910390fd5b8073ffffffffffffffffffffffffffffffffffffffff166108fc479081150290604051600060405180830381858888f19350505050158015610a94573d6000803e3d6000fd5b5050565b610aa061140a565b73ffffffffffffffffffffffffffffffffffffffff16610abe610e6b565b73ffffffffffffffffffffffffffffffffffffffff1614610b14576040517f08c379a0000000000000000000000000000000000000000000000000000000008152600401610b0b90612abf565b60405180910390fd5b8060089080519060200190610b2a92919061200f565b5050565b6000806002600084815260200190815260200160002060009054906101000a900473ffffffffffffffffffffffffffffffffffffffff169050600073ffffffffffffffffffffffffffffffffffffffff168173ffffffffffffffffffffffffffffffffffffffff161415610bd7576040517f08c379a0000000000000000000000000000000000000000000000000000000008152600401610bce90612bbd565b60405180910390fd5b80915050919050565b6000610bec6007611805565b905090565b60008073ffffffffffffffffffffffffffffffffffffffff168273ffffffffffffffffffffffffffffffffffffffff161415610c62576040517f08c379a0000000000000000000000000000000000000000000000000000000008152600401610c5990612c4f565b60405180910390fd5b600360008373ffffffffffffffffffffffffffffffffffffffff1673ffffffffffffffffffffffffffffffffffffffff168152602001908152602001600020549050919050565b606060088054610cb8906127f9565b80601f0160208091040260200160405190810160405280929190818152602001828054610ce4906127f9565b8015610d315780601f10610d0657610100808354040283529160200191610d31565b820191906000526020600020905b815481529060010190602001808311610d1457829003601f168201915b5050505050905090565b610d4361140a565b73ffffffffffffffffffffffffffffffffffffffff16610d61610e6b565b73ffffffffffffffffffffffffffffffffffffffff1614610db7576040517f08c379a0000000000000000000000000000000000000000000000000000000008152600401610dae90612abf565b60405180910390fd5b610dc16000611813565b565b610dcb61140a565b73ffffffffffffffffffffffffffffffffffffffff16610de9610e6b565b73ffffffffffffffffffffffffffffffffffffffff1614610e3f576040517f08c379a0000000000000000000000000000000000000000000000000000000008152600401610e3690612abf565b60405180910390fd5b600a60009054906101000a900460ff1615600a60006101000a81548160ff021916908315150217905550565b6000600660009054906101000a900473ffffffffffffffffffffffffffffffffffffffff16905090565b606060018054610ea4906127f9565b80601f0160208091040260200160405190810160405280929190818152602001828054610ed0906127f9565b8015610f1d5780601f10610ef257610100808354040283529160200191610f1d565b820191906000526020600020905b815481529060010190602001808311610f0057829003601f168201915b5050505050905090565b66b1a2bc2ec5000081565b600a60009054906101000a900460ff1615610f82576040517f08c379a0000000000000000000000000000000000000000000000000000000008152600401610f7990612cbb565b60405180910390fd5b60006001610f906007611805565b610f9a9190612d0a565b9050600954811115610fe1576040517f08c379a0000000000000000000000000000000000000000000000000000000008152600401610fd890612dac565b60405180910390fd5b8166b1a2bc2ec50000610ff49190612dcc565b341015611036576040517f08c379a000000000000000000000000000000000000000000000000000000000815260040161102d90612e4c565b60405180910390fd5b60005b828110156110715761104b60076118d9565b61105e336110596007611805565b6118ef565b808061106990612e6c565b915050611039565b505050565b61108861108161140a565b838361190d565b5050565b61109d61109761140a565b836114cb565b6110dc576040517f08c379a00000000000000000000000000000000000000000000000000000000081526004016110d390612a53565b60405180910390fd5b6110e884848484611a7a565b50505050565b60606110f98261139e565b611138576040517f08c379a000000000000000000000000000000000000000000000000000000000815260040161112f90612f01565b60405180910390fd5b6000611142610ca9565b90506000815111611162576040518060200160405280600081525061118d565b8061116c84611ad6565b60405160200161117d929190612f5d565b6040516020818303038152906040525b915050919050565b600a60009054906101000a900460ff1681565b6000600560008473ffffffffffffffffffffffffffffffffffffffff1673ffffffffffffffffffffffffffffffffffffffff16815260200190815260200160002060008373ffffffffffffffffffffffffffffffffffffffff1673ffffffffffffffffffffffffffffffffffffffff16815260200190815260200160002060009054906101000a900460ff16905092915050565b61124461140a565b73ffffffffffffffffffffffffffffffffffffffff16611262610e6b565b73ffffffffffffffffffffffffffffffffffffffff16146112b8576040517f08c379a00000000000000000000000000000000000000000000000000000000081526004016112af90612abf565b60405180910390fd5b600073ffffffffffffffffffffffffffffffffffffffff168173ffffffffffffffffffffffffffffffffffffffff161415611328576040517f08c379a000000000000000000000000000000000000000000000000000000000815260040161131f90612ff3565b60405180910390fd5b61133181611813565b50565b60007f01ffc9a7000000000000000000000000000000000000000000000000000000007bffffffffffffffffffffffffffffffffffffffffffffffffffffffff1916827bffffffffffffffffffffffffffffffffffffffffffffffffffffffff1916149050919050565b60008073ffffffffffffffffffffffffffffffffffffffff166002600084815260200190815260200160002060009054906101000a900473ffffffffffffffffffffffffffffffffffffffff1673ffffffffffffffffffffffffffffffffffffffff1614159050919050565b600033905090565b816004600083815260200190815260200160002060006101000a81548173ffffffffffffffffffffffffffffffffffffffff021916908373ffffffffffffffffffffffffffffffffffffffff160217905550808273ffffffffffffffffffffffffffffffffffffffff1661148583610b2e565b73ffffffffffffffffffffffffffffffffffffffff167f8c5be1e5ebec7d5bd14f71427d1e84f3dd0314c0f7b2291e5b200ac8c7c3b92560405160405180910390a45050565b60006114d68261139e565b611515576040517f08c379a000000000000000000000000000000000000000000000000000000000815260040161150c90613085565b60405180910390fd5b600061152083610b2e565b90508073ffffffffffffffffffffffffffffffffffffffff168473ffffffffffffffffffffffffffffffffffffffff16148061158f57508373ffffffffffffffffffffffffffffffffffffffff166115778461073f565b73ffffffffffffffffffffffffffffffffffffffff16145b806115a0575061159f81856111a8565b5b91505092915050565b8273ffffffffffffffffffffffffffffffffffffffff166115c982610b2e565b73ffffffffffffffffffffffffffffffffffffffff161461161f576040517f08c379a000000000000000000000000000000000000000000000000000000000815260040161161690613117565b60405180910390fd5b600073ffffffffffffffffffffffffffffffffffffffff168273ffffffffffffffffffffffffffffffffffffffff16141561168f576040517f08c379a0000000000000000000000000000000000000000000000000000000008152600401611686906131a9565b60405180910390fd5b61169a838383611c37565b6116a5600082611412565b6001600360008573ffffffffffffffffffffffffffffffffffffffff1673ffffffffffffffffffffffffffffffffffffffff16815260200190815260200160002060008282546116f591906131c9565b925050819055506001600360008473ffffffffffffffffffffffffffffffffffffffff1673ffffffffffffffffffffffffffffffffffffffff168152602001908152602001600020600082825461174c9190612d0a565b92505081905550816002600083815260200190815260200160002060006101000a81548173ffffffffffffffffffffffffffffffffffffffff021916908373ffffffffffffffffffffffffffffffffffffffff160217905550808273ffffffffffffffffffffffffffffffffffffffff168473ffffffffffffffffffffffffffffffffffffffff167fddf252ad1be2c89b69c2b068fc378daa952ba7f163c4a11628f55a4df523b3ef60405160405180910390a4505050565b600081600001549050919050565b6000600660009054906101000a900473ffffffffffffffffffffffffffffffffffffffff16905081600660006101000a81548173ffffffffffffffffffffffffffffffffffffffff021916908373ffffffffffffffffffffffffffffffffffffffff1602179055508173ffffffffffffffffffffffffffffffffffffffff168173ffffffffffffffffffffffffffffffffffffffff167f8be0079c531659141344cd1fd0a4f28419497f9722a3daafe3b4186f6b6457e060405160405180910390a35050565b6001816000016000828254019250508190555050565b611909828260405180602001604052806000815250611c3c565b5050565b8173ffffffffffffffffffffffffffffffffffffffff168373ffffffffffffffffffffffffffffffffffffffff16141561197c576040517f08c379a000000000000000000000000000000000000000000000000000000000815260040161197390613249565b60405180910390fd5b80600560008573ffffffffffffffffffffffffffffffffffffffff1673ffffffffffffffffffffffffffffffffffffffff16815260200190815260200160002060008473ffffffffffffffffffffffffffffffffffffffff1673ffffffffffffffffffffffffffffffffffffffff16815260200190815260200160002060006101000a81548160ff0219169083151502179055508173ffffffffffffffffffffffffffffffffffffffff168373ffffffffffffffffffffffffffffffffffffffff167f17307eab39ab6107e8899845ad3d59bd9653f200f220920489ca2b5937696c3183604051611a6d9190612166565b60405180910390a3505050565b611a858484846115a9565b611a9184848484611c97565b611ad0576040517f08c379a0000000000000000000000000000000000000000000000000000000008152600401611ac7906132db565b60405180910390fd5b50505050565b60606000821415611b1e576040518060400160405280600181526020017f30000000000000000000000000000000000000000000000000000000000000008152509050611c32565b600082905060005b60008214611b50578080611b3990612e6c565b915050600a82611b49919061332a565b9150611b26565b60008167ffffffffffffffff811115611b6c57611b6b612459565b5b6040519080825280601f01601f191660200182016040528015611b9e5781602001600182028036833780820191505090505b5090505b60008514611c2b57600182611bb791906131c9565b9150600a85611bc6919061335b565b6030611bd29190612d0a565b60f81b818381518110611be857611be761338c565b5b60200101907effffffffffffffffffffffffffffffffffffffffffffffffffffffffffffff1916908160001a905350600a85611c24919061332a565b9450611ba2565b8093505050505b919050565b505050565b611c468383611e2e565b611c536000848484611c97565b611c92576040517f08c379a0000000000000000000000000000000000000000000000000000000008152600401611c89906132db565b60405180910390fd5b505050565b6000611cb88473ffffffffffffffffffffffffffffffffffffffff16611ffc565b15611e21578373ffffffffffffffffffffffffffffffffffffffff1663150b7a02611ce161140a565b8786866040518563ffffffff1660e01b8152600401611d039493929190613410565b602060405180830381600087803b158015611d1d57600080fd5b505af1925050508015611d4e57506040513d601f19601f82011682018060405250810190611d4b9190613471565b60015b611dd1573d8060008114611d7e576040519150601f19603f3d011682016040523d82523d6000602084013e611d83565b606091505b50600081511415611dc9576040517f08c379a0000000000000000000000000000000000000000000000000000000008152600401611dc0906132db565b60405180910390fd5b805181602001fd5b63150b7a0260e01b7bffffffffffffffffffffffffffffffffffffffffffffffffffffffff1916817bffffffffffffffffffffffffffffffffffffffffffffffffffffffff191614915050611e26565b600190505b949350505050565b600073ffffffffffffffffffffffffffffffffffffffff168273ffffffffffffffffffffffffffffffffffffffff161415611e9e576040517f08c379a0000000000000000000000000000000000000000000000000000000008152600401611e95906134ea565b60405180910390fd5b611ea78161139e565b15611ee7576040517f08c379a0000000000000000000000000000000000000000000000000000000008152600401611ede90613556565b60405180910390fd5b611ef360008383611c37565b6001600360008473ffffffffffffffffffffffffffffffffffffffff1673ffffffffffffffffffffffffffffffffffffffff1681526020019081526020016000206000828254611f439190612d0a565b92505081905550816002600083815260200190815260200160002060006101000a81548173ffffffffffffffffffffffffffffffffffffffff021916908373ffffffffffffffffffffffffffffffffffffffff160217905550808273ffffffffffffffffffffffffffffffffffffffff16600073ffffffffffffffffffffffffffffffffffffffff167fddf252ad1be2c89b69c2b068fc378daa952ba7f163c4a11628f55a4df523b3ef60405160405180910390a45050565b600080823b905060008111915050919050565b82805461201b906127f9565b90600052602060002090601f01602090048101928261203d5760008555612084565b82601f1061205657805160ff1916838001178555612084565b82800160010185558215612084579182015b82811115612083578251825591602001919060010190612068565b5b5090506120919190612095565b5090565b5b808211156120ae576000816000905550600101612096565b5090565b6000604051905090565b600080fd5b600080fd5b60007fffffffff0000000000000000000000000000000000000000000000000000000082169050919050565b6120fb816120c6565b811461210657600080fd5b50565b600081359050612118816120f2565b92915050565b600060208284031215612134576121336120bc565b5b600061214284828501612109565b91505092915050565b60008115159050919050565b6121608161214b565b82525050565b600060208201905061217b6000830184612157565b92915050565b600081519050919050565b600082825260208201905092915050565b60005b838110156121bb5780820151818401526020810190506121a0565b838111156121ca576000848401525b50505050565b6000601f19601f8301169050919050565b60006121ec82612181565b6121f6818561218c565b935061220681856020860161219d565b61220f816121d0565b840191505092915050565b6000602082019050818103600083015261223481846121e1565b905092915050565b6000819050919050565b61224f8161223c565b811461225a57600080fd5b50565b60008135905061226c81612246565b92915050565b600060208284031215612288576122876120bc565b5b60006122968482850161225d565b91505092915050565b600073ffffffffffffffffffffffffffffffffffffffff82169050919050565b60006122ca8261229f565b9050919050565b6122da816122bf565b82525050565b60006020820190506122f560008301846122d1565b92915050565b612304816122bf565b811461230f57600080fd5b50565b600081359050612321816122fb565b92915050565b6000806040838503121561233e5761233d6120bc565b5b600061234c85828601612312565b925050602061235d8582860161225d565b9150509250929050565b6000806000606084860312156123805761237f6120bc565b5b600061238e86828701612312565b935050602061239f86828701612312565b92505060406123b08682870161225d565b9150509250925092565b6123c38161223c565b82525050565b60006020820190506123de60008301846123ba565b92915050565b60006123ef8261229f565b9050919050565b6123ff816123e4565b811461240a57600080fd5b50565b60008135905061241c816123f6565b92915050565b600060208284031215612438576124376120bc565b5b60006124468482850161240d565b91505092915050565b600080fd5b600080fd5b7f4e487b7100000000000000000000000000000000000000000000000000000000600052604160045260246000fd5b612491826121d0565b810181811067ffffffffffffffff821117156124b0576124af612459565b5b80604052505050565b60006124c36120b2565b90506124cf8282612488565b919050565b600067ffffffffffffffff8211156124ef576124ee612459565b5b6124f8826121d0565b9050602081019050919050565b82818337600083830152505050565b6000612527612522846124d4565b6124b9565b90508281526020810184848401111561254357612542612454565b5b61254e848285612505565b509392505050565b600082601f83011261256b5761256a61244f565b5b813561257b848260208601612514565b91505092915050565b60006020828403121561259a576125996120bc565b5b600082013567ffffffffffffffff8111156125b8576125b76120c1565b5b6125c484828501612556565b91505092915050565b6000602082840312156125e3576125e26120bc565b5b60006125f184828501612312565b91505092915050565b6126038161214b565b811461260e57600080fd5b50565b600081359050612620816125fa565b92915050565b6000806040838503121561263d5761263c6120bc565b5b600061264b85828601612312565b925050602061265c85828601612611565b9150509250929050565b600067ffffffffffffffff82111561268157612680612459565b5b61268a826121d0565b9050602081019050919050565b60006126aa6126a584612666565b6124b9565b9050828152602081018484840111156126c6576126c5612454565b5b6126d1848285612505565b509392505050565b600082601f8301126126ee576126ed61244f565b5b81356126fe848260208601612697565b91505092915050565b60008060008060808587031215612721576127206120bc565b5b600061272f87828801612312565b945050602061274087828801612312565b93505060406127518782880161225d565b925050606085013567ffffffffffffffff811115612772576127716120c1565b5b61277e878288016126d9565b91505092959194509250565b600080604083850312156127a1576127a06120bc565b5b60006127af85828601612312565b92505060206127c085828601612312565b9150509250929050565b7f4e487b7100000000000000000000000000000000000000000000000000000000600052602260045260246000fd5b6000600282049050600182168061281157607f821691505b60208210811415612825576128246127ca565b5b50919050565b7f4552433732313a20617070726f76656420717565727920666f72206e6f6e657860008201527f697374656e7420746f6b656e0000000000000000000000000000000000000000602082015250565b6000612887602c8361218c565b91506128928261282b565b604082019050919050565b600060208201905081810360008301526128b68161287a565b9050919050565b7f4552433732313a20617070726f76616c20746f2063757272656e74206f776e6560008201527f7200000000000000000000000000000000000000000000000000000000000000602082015250565b600061291960218361218c565b9150612924826128bd565b604082019050919050565b600060208201905081810360008301526129488161290c565b9050919050565b7f4552433732313a20617070726f76652063616c6c6572206973206e6f74206f7760008201527f6e6572206e6f7220617070726f76656420666f7220616c6c0000000000000000602082015250565b60006129ab60388361218c565b91506129b68261294f565b604082019050919050565b600060208201905081810360008301526129da8161299e565b9050919050565b7f4552433732313a207472616e736665722063616c6c6572206973206e6f74206f60008201527f776e6572206e6f7220617070726f766564000000000000000000000000000000602082015250565b6000612a3d60318361218c565b9150612a48826129e1565b604082019050919050565b60006020820190508181036000830152612a6c81612a30565b9050919050565b7f4f776e61626c653a2063616c6c6572206973206e6f7420746865206f776e6572600082015250565b6000612aa960208361218c565b9150612ab482612a73565b602082019050919050565b60006020820190508181036000830152612ad881612a9c565b9050919050565b7f43616e6e6f7420776974686472617720746f206e756c6c000000000000000000600082015250565b6000612b1560178361218c565b9150612b2082612adf565b602082019050919050565b60006020820190508181036000830152612b4481612b08565b9050919050565b7f4552433732313a206f776e657220717565727920666f72206e6f6e657869737460008201527f656e7420746f6b656e0000000000000000000000000000000000000000000000602082015250565b6000612ba760298361218c565b9150612bb282612b4b565b604082019050919050565b60006020820190508181036000830152612bd681612b9a565b9050919050565b7f4552433732313a2062616c616e636520717565727920666f7220746865207a6560008201527f726f206164647265737300000000000000000000000000000000000000000000602082015250565b6000612c39602a8361218c565b9150612c4482612bdd565b604082019050919050565b60006020820190508181036000830152612c6881612c2c565b9050919050565b7f4d696e74696e6720697320706175736564000000000000000000000000000000600082015250565b6000612ca560118361218c565b9150612cb082612c6f565b602082019050919050565b60006020820190508181036000830152612cd481612c98565b9050919050565b7f4e487b7100000000000000000000000000000000000000000000000000000000600052601160045260246000fd5b6000612d158261223c565b9150612d208361223c565b9250827fffffffffffffffffffffffffffffffffffffffffffffffffffffffffffffffff03821115612d5557612d54612cdb565b5b828201905092915050565b7f546f74616c20737570706c792072656163686564000000000000000000000000600082015250565b6000612d9660148361218c565b9150612da182612d60565b602082019050919050565b60006020820190508181036000830152612dc581612d89565b9050919050565b6000612dd78261223c565b9150612de28361223c565b9250817fffffffffffffffffffffffffffffffffffffffffffffffffffffffffffffffff0483118215151615612e1b57612e1a612cdb565b5b828202905092915050565b50565b6000612e3660008361218c565b9150612e4182612e26565b600082019050919050565b60006020820190508181036000830152612e6581612e29565b9050919050565b6000612e778261223c565b91507fffffffffffffffffffffffffffffffffffffffffffffffffffffffffffffffff821415612eaa57612ea9612cdb565b5b600182019050919050565b7f55524920717565727920666f72206e6f6e6578697374656e7420746f6b656e00600082015250565b6000612eeb601f8361218c565b9150612ef682612eb5565b602082019050919050565b60006020820190508181036000830152612f1a81612ede565b9050919050565b600081905092915050565b6000612f3782612181565b612f418185612f21565b9350612f5181856020860161219d565b80840191505092915050565b6000612f698285612f2c565b9150612f758284612f2c565b91508190509392505050565b7f4f776e61626c653a206e6577206f776e657220697320746865207a65726f206160008201527f6464726573730000000000000000000000000000000000000000000000000000602082015250565b6000612fdd60268361218c565b9150612fe882612f81565b604082019050919050565b6000602082019050818103600083015261300c81612fd0565b9050919050565b7f4552433732313a206f70657261746f7220717565727920666f72206e6f6e657860008201527f697374656e7420746f6b656e0000000000000000000000000000000000000000602082015250565b600061306f602c8361218c565b915061307a82613013565b604082019050919050565b6000602082019050818103600083015261309e81613062565b9050919050565b7f4552433732313a207472616e73666572206f6620746f6b656e2074686174206960008201527f73206e6f74206f776e0000000000000000000000000000000000000000000000602082015250565b600061310160298361218c565b915061310c826130a5565b604082019050919050565b60006020820190508181036000830152613130816130f4565b9050919050565b7f4552433732313a207472616e7366657220746f20746865207a65726f2061646460008201527f7265737300000000000000000000000000000000000000000000000000000000602082015250565b600061319360248361218c565b915061319e82613137565b604082019050919050565b600060208201905081810360008301526131c281613186565b9050919050565b60006131d48261223c565b91506131df8361223c565b9250828210156131f2576131f1612cdb565b5b828203905092915050565b7f4552433732313a20617070726f766520746f2063616c6c657200000000000000600082015250565b600061323360198361218c565b915061323e826131fd565b602082019050919050565b6000602082019050818103600083015261326281613226565b9050919050565b7f4552433732313a207472616e7366657220746f206e6f6e20455243373231526560008201527f63656976657220696d706c656d656e7465720000000000000000000000000000602082015250565b60006132c560328361218c565b91506132d082613269565b604082019050919050565b600060208201905081810360008301526132f4816132b8565b9050919050565b7f4e487b7100000000000000000000000000000000000000000000000000000000600052601260045260246000fd5b60006133358261223c565b91506133408361223c565b9250826133505761334f6132fb565b5b828204905092915050565b60006133668261223c565b91506133718361223c565b925082613381576133806132fb565b5b828206905092915050565b7f4e487b7100000000000000000000000000000000000000000000000000000000600052603260045260246000fd5b600081519050919050565b600082825260208201905092915050565b60006133e2826133bb565b6133ec81856133c6565b93506133fc81856020860161219d565b613405816121d0565b840191505092915050565b600060808201905061342560008301876122d1565b61343260208301866122d1565b61343f60408301856123ba565b818103606083015261345181846133d7565b905095945050505050565b60008151905061346b816120f2565b92915050565b600060208284031215613487576134866120bc565b5b60006134958482850161345c565b91505092915050565b7f4552433732313a206d696e7420746f20746865207a65726f2061646472657373600082015250565b60006134d460208361218c565b91506134df8261349e565b602082019050919050565b60006020820190508181036000830152613503816134c7565b9050919050565b7f4552433732313a20746f6b656e20616c7265616479206d696e74656400000000600082015250565b6000613540601c8361218c565b915061354b8261350a565b602082019050919050565b6000602082019050818103600083015261356f81613533565b905091905056fea264697066735822122017bfaf4ec1fcfa6646d01fb72b91e2652f55b10174818de056fb70f3a2aedfce64736f6c6343000809003368747470733a2f2f6f70656e7365612d6372656174757265732d6170692e6865726f6b756170702e636f6d2f6170692f63726561747572652f",
  "linkReferences": {},
  "deployedLinkReferences": {}
}